:1000000009C01AC018C033C016C015C014C013C030
:100010003EC011C011241FBECFE9CDBF10E0A0E645
:10002000B0E0EEE0F1E002C005900D92AA37B10712
:10003000D9F737D06AC0E4CF1F920F920FB60F9254
:1000400011248F9388B3877F816088BB85E083BF4D
:100050001FBC81E088BD8091600082BF82E088BFC4
:1000600089BF8F910F900FBE0F901F9018951F9210
:100070000F920FB60F921124C09B06C0C0980F902C
:100080000FBE0F901F901895C39A19BEF8CF1F92FC
:100090000F920FB60F9211240F900FBE0F901F906A
:1000A000189514BE15BE89E087BB8EE288BB85B764
:1000B000877E85BF85B7806285BF88E181BD8FE47B
:1000C00081BD82E085BF90E49BBF90E194BB87B97E
:1000D00087ED86B9789427E497ED8895A89521BD9A
:1000E000349BFBCF84B1E5B1FE2FE82FEE0FEF2F4D
:1000F000EE1FFF0BF195E770FF27EF58FF4F808150
:0E01000081958093600096B9E8CFF894FFCF08
:10010E00FA9703EC0278022302E201AF018601B9ED
:0A011E0000010203060C182F5E001A
:00000001FF
