:1000000009C01AC018C033C016C015C014C013C030
:100010003EC011C011241FBECFE9CDBF10E0A0E645
:10002000B0E0E8E1F1E002C005900D92AA36B10718
:10003000D9F737D06FC0E4CF1F920F920FB60F924F
:1000400011248F9388B3867F816088BB85E083BF4E
:100050001FBC81E088BD8091680082BF82E088BFBC
:1000600089BF8F910F900FBE0F901F9018951F9210
:100070000F920FB60F921124C09B02C0C09802C00D
:10008000C39A19BE0F900FBE0F901F9018951F9224
:100090000F920FB60F9211240F900FBE0F901F906A
:1000A000189514BE15BE29E027BB2EE228BB25B744
:1000B000277E25BF25B7206225BF21B5286121BD38
:1000C00028EE21BD22E025BF30E43BBF30E134BB48
:1000D00027B927ED26B9789437ED8895A89521B5ED
:1000E000206421BD349BF9CFE4B1F0E025B1922F1B
:1000F00080E0E82BF92BEE0FEF2FEE1FFF0BF195B1
:10010000E770F070E05AFF4F20812195209368003E
:0801100036B9E3CFF894FFCFEC
:0A011800010203060C182F5EFA0026
:00000001FF
